{
  "_format": "hh-sol-artifact-1",
  "contractName": "CoreNFT",
  "sourceName": "contracts/NFT.sol",
  "abi": [
    {
      "inputs": [
        {
          "internalType": "string",
          "name": "baseURI_",
          "type": "string"
        }
      ],
      "stateMutability": "nonpayable",
      "type": "constructor"
    },
    {
      "inputs": [],
      "name": "ERC721EnumerableForbiddenBatchMint",
      "type": "error"
    },
    {
      "inputs": [
        {
          "internalType": "address",
          "name": "sender",
          "type": "address"
        },
        {
          "internalType": "uint256",
          "name": "tokenId",
          "type": "uint256"
        },
        {
          "internalType": "address",
          "name": "owner",
          "type": "address"
        }
      ],
      "name": "ERC721IncorrectOwner",
      "type": "error"
    },
    {
      "inputs": [
        {
          "internalType": "address",
          "name": "operator",
          "type": "address"
        },
        {
          "internalType": "uint256",
          "name": "tokenId",
          "type": "uint256"
        }
      ],
      "name": "ERC721InsufficientApproval",
      "type": "error"
    },
    {
      "inputs": [
        {
          "internalType": "address",
          "name": "approver",
          "type": "address"
        }
      ],
      "name": "ERC721InvalidApprover",
      "type": "error"
    },
    {
      "inputs": [
        {
          "internalType": "address",
          "name": "operator",
          "type": "address"
        }
      ],
      "name": "ERC721InvalidOperator",
      "type": "error"
    },
    {
      "inputs": [
        {
          "internalType": "address",
          "name": "owner",
          "type": "address"
        }
      ],
      "name": "ERC721InvalidOwner",
      "type": "error"
    },
    {
      "inputs": [
        {
          "internalType": "address",
          "name": "receiver",
          "type": "address"
        }
      ],
      "name": "ERC721InvalidReceiver",
      "type": "error"
    },
    {
      "inputs": [
        {
          "internalType": "address",
          "name": "sender",
          "type": "address"
        }
      ],
      "name": "ERC721InvalidSender",
      "type": "error"
    },
    {
      "inputs": [
        {
          "internalType": "uint256",
          "name": "tokenId",
          "type": "uint256"
        }
      ],
      "name": "ERC721NonexistentToken",
      "type": "error"
    },
    {
      "inputs": [
        {
          "internalType": "address",
          "name": "owner",
          "type": "address"
        },
        {
          "internalType": "uint256",
          "name": "index",
          "type": "uint256"
        }
      ],
      "name": "ERC721OutOfBoundsIndex",
      "type": "error"
    },
    {
      "inputs": [
        {
          "internalType": "address",
          "name": "owner",
          "type": "address"
        }
      ],
      "name": "OwnableInvalidOwner",
      "type": "error"
    },
    {
      "inputs": [
        {
          "internalType": "address",
          "name": "account",
          "type": "address"
        }
      ],
      "name": "OwnableUnauthorizedAccount",
      "type": "error"
    },
    {
      "anonymous": false,
      "inputs": [
        {
          "indexed": true,
          "internalType": "address",
          "name": "owner",
          "type": "address"
        },
        {
          "indexed": true,
          "internalType": "address",
          "name": "approved",
          "type": "address"
        },
        {
          "indexed": true,
          "internalType": "uint256",
          "name": "tokenId",
          "type": "uint256"
        }
      ],
      "name": "Approval",
      "type": "event"
    },
    {
      "anonymous": false,
      "inputs": [
        {
          "indexed": true,
          "internalType": "address",
          "name": "owner",
          "type": "address"
        },
        {
          "indexed": true,
          "internalType": "address",
          "name": "operator",
          "type": "address"
        },
        {
          "indexed": false,
          "internalType": "bool",
          "name": "approved",
          "type": "bool"
        }
      ],
      "name": "ApprovalForAll",
      "type": "event"
    },
    {
      "anonymous": false,
      "inputs": [
        {
          "indexed": false,
          "internalType": "uint256",
          "name": "_fromTokenId",
          "type": "uint256"
        },
        {
          "indexed": false,
          "internalType": "uint256",
          "name": "_toTokenId",
          "type": "uint256"
        }
      ],
      "name": "BatchMetadataUpdate",
      "type": "event"
    },
    {
      "anonymous": false,
      "inputs": [
        {
          "indexed": false,
          "internalType": "uint256",
          "name": "_tokenId",
          "type": "uint256"
        }
      ],
      "name": "MetadataUpdate",
      "type": "event"
    },
    {
      "anonymous": false,
      "inputs": [
        {
          "indexed": true,
          "internalType": "address",
          "name": "previousOwner",
          "type": "address"
        },
        {
          "indexed": true,
          "internalType": "address",
          "name": "newOwner",
          "type": "address"
        }
      ],
      "name": "OwnershipTransferred",
      "type": "event"
    },
    {
      "anonymous": false,
      "inputs": [
        {
          "indexed": true,
          "internalType": "address",
          "name": "from",
          "type": "address"
        },
        {
          "indexed": true,
          "internalType": "address",
          "name": "to",
          "type": "address"
        },
        {
          "indexed": true,
          "internalType": "uint256",
          "name": "tokenId",
          "type": "uint256"
        }
      ],
      "name": "Transfer",
      "type": "event"
    },
    {
      "inputs": [
        {
          "internalType": "address",
          "name": "to",
          "type": "address"
        },
        {
          "internalType": "uint256",
          "name": "tokenId",
          "type": "uint256"
        }
      ],
      "name": "approve",
      "outputs": [],
      "stateMutability": "nonpayable",
      "type": "function"
    },
    {
      "inputs": [
        {
          "internalType": "address",
          "name": "owner",
          "type": "address"
        }
      ],
      "name": "balanceOf",
      "outputs": [
        {
          "internalType": "uint256",
          "name": "",
          "type": "uint256"
        }
      ],
      "stateMutability": "view",
      "type": "function"
    },
    {
      "inputs": [
        {
          "internalType": "uint256",
          "name": "tokenId",
          "type": "uint256"
        }
      ],
      "name": "getApproved",
      "outputs": [
        {
          "internalType": "address",
          "name": "",
          "type": "address"
        }
      ],
      "stateMutability": "view",
      "type": "function"
    },
    {
      "inputs": [],
      "name": "getCurrentTokenId",
      "outputs": [
        {
          "internalType": "uint256",
          "name": "",
          "type": "uint256"
        }
      ],
      "stateMutability": "view",
      "type": "function"
    },
    {
      "inputs": [
        {
          "internalType": "address",
          "name": "owner",
          "type": "address"
        },
        {
          "internalType": "address",
          "name": "operator",
          "type": "address"
        }
      ],
      "name": "isApprovedForAll",
      "outputs": [
        {
          "internalType": "bool",
          "name": "",
          "type": "bool"
        }
      ],
      "stateMutability": "view",
      "type": "function"
    },
    {
      "inputs": [],
      "name": "name",
      "outputs": [
        {
          "internalType": "string",
          "name": "",
          "type": "string"
        }
      ],
      "stateMutability": "view",
      "type": "function"
    },
    {
      "inputs": [],
      "name": "owner",
      "outputs": [
        {
          "internalType": "address",
          "name": "",
          "type": "address"
        }
      ],
      "stateMutability": "view",
      "type": "function"
    },
    {
      "inputs": [
        {
          "internalType": "uint256",
          "name": "tokenId",
          "type": "uint256"
        }
      ],
      "name": "ownerOf",
      "outputs": [
        {
          "internalType": "address",
          "name": "",
          "type": "address"
        }
      ],
      "stateMutability": "view",
      "type": "function"
    },
    {
      "inputs": [],
      "name": "renounceOwnership",
      "outputs": [],
      "stateMutability": "nonpayable",
      "type": "function"
    },
    {
      "inputs": [
        {
          "internalType": "address",
          "name": "to",
          "type": "address"
        }
      ],
      "name": "safeMint",
      "outputs": [],
      "stateMutability": "nonpayable",
      "type": "function"
    },
    {
      "inputs": [
        {
          "internalType": "address",
          "name": "from",
          "type": "address"
        },
        {
          "internalType": "address",
          "name": "to",
          "type": "address"
        },
        {
          "internalType": "uint256",
          "name": "tokenId",
          "type": "uint256"
        }
      ],
      "name": "safeTransferFrom",
      "outputs": [],
      "stateMutability": "nonpayable",
      "type": "function"
    },
    {
      "inputs": [
        {
          "internalType": "address",
          "name": "from",
          "type": "address"
        },
        {
          "internalType": "address",
          "name": "to",
          "type": "address"
        },
        {
          "internalType": "uint256",
          "name": "tokenId",
          "type": "uint256"
        },
        {
          "internalType": "bytes",
          "name": "data",
          "type": "bytes"
        }
      ],
      "name": "safeTransferFrom",
      "outputs": [],
      "stateMutability": "nonpayable",
      "type": "function"
    },
    {
      "inputs": [
        {
          "internalType": "address",
          "name": "operator",
          "type": "address"
        },
        {
          "internalType": "bool",
          "name": "approved",
          "type": "bool"
        }
      ],
      "name": "setApprovalForAll",
      "outputs": [],
      "stateMutability": "nonpayable",
      "type": "function"
    },
    {
      "inputs": [
        {
          "internalType": "string",
          "name": "baseURI_",
          "type": "string"
        }
      ],
      "name": "setBaseURI",
      "outputs": [],
      "stateMutability": "nonpayable",
      "type": "function"
    },
    {
      "inputs": [
        {
          "internalType": "bytes4",
          "name": "interfaceId",
          "type": "bytes4"
        }
      ],
      "name": "supportsInterface",
      "outputs": [
        {
          "internalType": "bool",
          "name": "",
          "type": "bool"
        }
      ],
      "stateMutability": "view",
      "type": "function"
    },
    {
      "inputs": [],
      "name": "symbol",
      "outputs": [
        {
          "internalType": "string",
          "name": "",
          "type": "string"
        }
      ],
      "stateMutability": "view",
      "type": "function"
    },
    {
      "inputs": [
        {
          "internalType": "uint256",
          "name": "index",
          "type": "uint256"
        }
      ],
      "name": "tokenByIndex",
      "outputs": [
        {
          "internalType": "uint256",
          "name": "",
          "type": "uint256"
        }
      ],
      "stateMutability": "view",
      "type": "function"
    },
    {
      "inputs": [
        {
          "internalType": "address",
          "name": "owner",
          "type": "address"
        },
        {
          "internalType": "uint256",
          "name": "index",
          "type": "uint256"
        }
      ],
      "name": "tokenOfOwnerByIndex",
      "outputs": [
        {
          "internalType": "uint256",
          "name": "",
          "type": "uint256"
        }
      ],
      "stateMutability": "view",
      "type": "function"
    },
    {
      "inputs": [
        {
          "internalType": "uint256",
          "name": "tokenId",
          "type": "uint256"
        }
      ],
      "name": "tokenURI",
      "outputs": [
        {
          "internalType": "string",
          "name": "",
          "type": "string"
        }
      ],
      "stateMutability": "view",
      "type": "function"
    },
    {
      "inputs": [],
      "name": "totalSupply",
      "outputs": [
        {
          "internalType": "uint256",
          "name": "",
          "type": "uint256"
        }
      ],
      "stateMutability": "view",
      "type": "function"
    },
    {
      "inputs": [
        {
          "internalType": "address",
          "name": "from",
          "type": "address"
        },
        {
          "internalType": "address",
          "name": "to",
          "type": "address"
        },
        {
          "internalType": "uint256",
          "name": "tokenId",
          "type": "uint256"
        }
      ],
      "name": "transferFrom",
      "outputs": [],
      "stateMutability": "nonpayable",
      "type": "function"
    },
    {
      "inputs": [
        {
          "internalType": "address",
          "name": "newOwner",
          "type": "address"
        }
      ],
      "name": "transferOwnership",
      "outputs": [],
      "stateMutability": "nonpayable",
      "type": "function"
    }
  ],
  "bytecode": "0x60806040523461054857611e03803803806100198161054d565b928339810190602081830312610548578051906001600160401b038211610548570181601f82011215610548578051906001600160401b0382116103475761006a601f8301601f191660200161054d565b92828452602083830101116105485760005b828110610533578360006020858301015260406100988161054d565b916007835266131a5cdad3919560ca1b60208401526100b68261054d565b60048152634c49534b60e01b602082015283519092906001600160401b03811161034757600054600181811c91168015610529575b602082101461032757601f81116104c5575b50602094601f821160011461045f57948192939495600092610454575b50508160011b916000199060031b1c1916176000555b82516001600160401b03811161034757600154600181811c9116801561044a575b602082101461032757601f81116103e5575b506020601f821160011461037e5781929394600092610373575b50508160011b916000199060031b1c1916176001555b331561035d57600b8054336001600160a01b0319821681179092556001600160a01b03167f8be0079c531659141344cd1fd0a4f28419497f9722a3daafe3b4186f6b6457e0600080a381516001600160401b03811161034757600d54600181811c9116801561033d575b602082101461032757601f81116102c2575b50602092601f821160011461025d5792819293600092610252575b50508160011b916000199060031b1c191617600d555b6000600c555161189090816105738239f35b01519050838061022a565b601f19821693600d600052806000209160005b8681106102aa5750836001959610610291575b505050811b01600d55610240565b015160001960f88460031b161c19169055838080610283565b91926020600181928685015181550194019201610270565b600d6000527fd7b6990105719101dabeb77144f2a3385c8033acd3af97e9423a695e81ad1eb5601f830160051c8101916020841061031d575b601f0160051c01905b818110610311575061020f565b60008155600101610304565b90915081906102fb565b634e487b7160e01b600052602260045260246000fd5b90607f16906101fd565b634e487b7160e01b600052604160045260246000fd5b631e4fbdf760e01b600052600060045260246000fd5b01519050848061017d565b601f198216906001600052806000209160005b8181106103cd575095836001959697106103b4575b505050811b01600155610193565b015160001960f88460031b161c191690558480806103a6565b9192602060018192868b015181550194019201610391565b60016000527fb10e2d527612073b26eecdfd717e6a320cf44b4afac2b0732d9fcbe2b7fa0cf6601f830160051c81019160208410610440575b601f0160051c01905b8181106104345750610163565b60008155600101610427565b909150819061041e565b90607f1690610151565b01519050858061011a565b601f1982169560008052806000209160005b8881106104ad57508360019596979810610494575b505050811b01600055610130565b015160001960f88460031b161c19169055858080610486565b91926020600181928685015181550194019201610471565b600080527f290decd9548b62a8d60345a988386fc84ba6bc95484008f6362f93160ef3e563601f830160051c8101916020841061051f575b601f0160051c01905b81811061051357506100fd565b60008155600101610506565b90915081906104fd565b90607f16906100eb565b8060208092840101518282870101520161007c565b600080fd5b6040519190601f01601f191682016001600160401b038111838210176103475760405256fe608080604052600436101561001357600080fd5b60003560e01c90816301ffc9a7146110155750806306fdde0314610f70578063081812fc14610f32578063095ea7b314610e4357806318160ddd14610e2557806323b872dd14610e0e5780632f745c5914610d9657806340d097c31461083a57806342842e0e1461080a5780634f6ccce7146107b957806355f804b31461061d57806356189236146105ff5780636352211e146105cf57806370a08231146105a4578063715018a6146105475780638da5cb5b1461051e57806395d89b4114610450578063a22cb465146103af578063b88d4fde14610342578063c87b56dd146101fb578063e985e9c5146101a05763f2fde38b1461011157600080fd5b3461019b57602036600319011261019b5761012a6110fc565b61013261157a565b6001600160a01b0316801561018557600b80546001600160a01b0319811683179091556001600160a01b03167f8be0079c531659141344cd1fd0a4f28419497f9722a3daafe3b4186f6b6457e0600080a3005b631e4fbdf760e01b600052600060045260246000fd5b600080fd5b3461019b57604036600319011261019b576101b96110fc565b6101c1611112565b9060018060a01b0316600052600560205260406000209060018060a01b0316600052602052602060ff604060002054166040519015158152f35b3461019b57602036600319011261019b57604051600090600d5461021e816111d7565b80835260208301916001811690811561032757506001146102e0575b5061024a826102c3940383611162565b8151600090156102c75750600561027f9260206102af9361026c6004356115a3565b90604051968794518092858701906110b4565b8301610293825180938580850191016110b4565b010164173539b7b760d91b815203601a19810184520182611162565b6040519182916020835260208301906110d7565b0390f35b915050604051906102d9602083611162565b81526102af565b9250600d60005260008051602061183b8339815191526000905b84821061031157508201602001925061024a61023a565b60018160209254838588010152019101906102fa565b60ff1916835250151560051b8201602001925061024a61023a565b3461019b57608036600319011261019b5761035b6110fc565b610363611112565b906044356064359267ffffffffffffffff841161019b573660238501121561019b5761039c6103ad9436906024816004013591016111a0565b926103a8838383611211565b611712565b005b3461019b57604036600319011261019b576103c86110fc565b6024359081151580920361019b576001600160a01b031690811561043b57336000526005602052604060002082600052602052604060002060ff1981541660ff83161790556040519081527f17307eab39ab6107e8899845ad3d59bd9653f200f220920489ca2b5937696c3160203392a3005b50630b61174360e31b60005260045260246000fd5b3461019b57600036600319011261019b576040516000600154610472816111d7565b80845290600181169081156104fa575060011461049a575b6102c3836102af81850382611162565b91905060016000527fb10e2d527612073b26eecdfd717e6a320cf44b4afac2b0732d9fcbe2b7fa0cf6916000905b8082106104e0575090915081016020016102af61048a565b9192600181602092548385880101520191019092916104c8565b60ff191660208086019190915291151560051b840190910191506102af905061048a565b3461019b57600036600319011261019b57600b546040516001600160a01b039091168152602090f35b3461019b57600036600319011261019b5761056061157a565b600b80546001600160a01b031981169091556000906001600160a01b03167f8be0079c531659141344cd1fd0a4f28419497f9722a3daafe3b4186f6b6457e08280a3005b3461019b57602036600319011261019b5760206105c76105c26110fc565b61150d565b604051908152f35b3461019b57602036600319011261019b5760206105ed600435611543565b6040516001600160a01b039091168152f35b3461019b57600036600319011261019b576020600c54604051908152f35b3461019b57602036600319011261019b5760043567ffffffffffffffff811161019b573660238201121561019b5761065f9036906024816004013591016111a0565b61066761157a565b805167ffffffffffffffff81116107a357610683600d546111d7565b601f8111610736575b50602091601f82116001146106ca579181926000926106bf575b5050600019600383901b1c191660019190911b17600d55005b0151905082806106a6565b601f19821692600d60005260008051602061183b8339815191529160005b85811061071e57508360019510610705575b505050811b01600d55005b015160001960f88460031b161c191690558280806106fa565b919260206001819286850151815501940192016106e8565b600d600052601f820160051c60008051602061183b83398151915201906020831061078d575b601f0160051c60008051602061183b83398151915201905b818110610781575061068c565b60008155600101610774565b60008051602061183b833981519152915061075c565b634e487b7160e01b600052604160045260246000fd5b3461019b57602036600319011261019b576004356008548110156107f1576107e26020916114dc565b90549060031b1c604051908152f35b63295f44f760e21b600052600060045260245260446000fd5b3461019b576103ad61081b36611128565b906040519261082b602085611162565b600084526103a8838383611211565b3461019b57602036600319011261019b576108536110fc565b61085b61157a565b600c54906000198214610d805760018201600c5560209060405161087f8382611162565b600081526001600160a01b038216918215610d6a5760008581526002855260408120546001600160a01b031680158015929083610d36575b8682526003885260408083208054600101905589835260028952822080546001600160a01b031916881790558887847fddf252ad1be2c89b69c2b068fc378daa952ba7f163c4a11628f55a4df523b3ef8580a415610cad5760085488825260098852806040832055600160401b811015610c99578861093f82600161095894016008556114dc565b90919082549060031b91821b91600019901b1916179055565b858203610c49575b5050610c33573b610b13575b5050610977826115a3565b916109b46005836040518661099582985180928580860191016110b4565b810164173539b7b760d91b838201520301601a19810186520184611162565b80600052600a82526040600020835167ffffffffffffffff81116107a3576109dc82546111d7565b601f8111610acd575b508394601f8211600114610a47577ff8e1a15aba9398e019f0b49df1a4fde98ee17ae345cb5f6b5e2c27f5033e8ce79560009183610a3c575b50508160011b916000199060031b1c19161790555b604051908152a1005b015190508680610a1e565b601f1982169583600052856000209160005b888110610ab65750908392916001947ff8e1a15aba9398e019f0b49df1a4fde98ee17ae345cb5f6b5e2c27f5033e8ce79910610a9d575b505050811b019055610a33565b015160001960f88460031b161c19169055868080610a90565b919287600181928685015181550194019201610a59565b8260005284600020601f830160051c810191868410610b09575b601f0160051c01905b818110610afd57506109e5565b60008155600101610af0565b9091508190610ae7565b82610b509160409593955180938192630a85bd0160e11b8352336004840152600060248401528660448401526080606484015260848301906110d7565b03816000885af18091600091610bee575b5090610bb85750503d15610bb1573d610b7981611184565b90610b876040519283611162565b81523d60008383013e5b80519182610bae5783633250574960e11b60005260045260246000fd5b01fd5b6060610b91565b9092906001600160e01b03191663757a42ff60e11b01610bda5750828061096c565b633250574960e11b60005260045260246000fd5b8481813d8311610c2c575b610c038183611162565b81010312610c285751906001600160e01b031982168203610c25575085610b61565b80fd5b5080fd5b503d610bf9565b6339e3563760e11b600052600060045260246000fd5b610c528461150d565b600019810191908211610c8557808760409252600689528181208382528952898282205589815260078952205587610960565b634e487b7160e01b81526011600452602490fd5b634e487b7160e01b82526041600452602482fd5b81861461095857610cbd8261150d565b888252600788526040822054818103610cfa575b508882526007885281604081205582825260068852604082209082528752806040812055610958565b83835260068952604083208284528952604083205484845260068a52604084208285528a52806040852055835260078952604083205589610cd1565b600089815260046020526040902080546001600160a01b0319169055828252600388526040822080546000190190556108b7565b633250574960e11b600052600060045260246000fd5b634e487b7160e01b600052601160045260246000fd5b3461019b57604036600319011261019b57610daf6110fc565b60243590610dbc8161150d565b821015610def5760018060a01b031660005260066020526040600020906000526020526020604060002054604051908152f35b63295f44f760e21b60005260018060a01b031660045260245260446000fd5b3461019b576103ad610e1f36611128565b91611211565b3461019b57600036600319011261019b576020600854604051908152f35b3461019b57604036600319011261019b57610e5c6110fc565b602435610e6881611543565b33151580610f1f575b80610ef1575b610edc5781906001600160a01b0384811691167f8c5be1e5ebec7d5bd14f71427d1e84f3dd0314c0f7b2291e5b200ac8c7c3b925600080a4600090815260046020526040902080546001600160a01b0319166001600160a01b03909216919091179055005b63a9fbf51f60e01b6000523360045260246000fd5b506001600160a01b038116600090815260056020908152604080832033845290915290205460ff1615610e77565b506001600160a01b038116331415610e71565b3461019b57602036600319011261019b57600435610f4f81611543565b506000526004602052602060018060a01b0360406000205416604051908152f35b3461019b57600036600319011261019b5760405160008054610f91816111d7565b80845290600181169081156104fa5750600114610fb8576102c3836102af81850382611162565b60008080527f290decd9548b62a8d60345a988386fc84ba6bc95484008f6362f93160ef3e563939250905b808210610ffb575090915081016020016102af61048a565b919260018160209254838588010152019101909291610fe3565b3461019b57602036600319011261019b576004359063ffffffff60e01b821680920361019b57602091632483248360e11b8114908115611057575b5015158152f35b63780e9d6360e01b811491508115611071575b5083611050565b6380ac58cd60e01b8114915081156110a3575b8115611092575b508361106a565b6301ffc9a760e01b1490508361108b565b635b5e139f60e01b81149150611084565b60005b8381106110c75750506000910152565b81810151838201526020016110b7565b906020916110f0815180928185528580860191016110b4565b601f01601f1916010190565b600435906001600160a01b038216820361019b57565b602435906001600160a01b038216820361019b57565b606090600319011261019b576004356001600160a01b038116810361019b57906024356001600160a01b038116810361019b579060443590565b90601f8019910116810190811067ffffffffffffffff8211176107a357604052565b67ffffffffffffffff81116107a357601f01601f191660200190565b9291926111ac82611184565b916111ba6040519384611162565b82948184528183011161019b578281602093846000960137010152565b90600182811c92168015611207575b60208310146111f157565b634e487b7160e01b600052602260045260246000fd5b91607f16916111e6565b9091906001600160a01b0383168015610d6a576000838152600260205260408120546001600160a01b0316943315158061144d575b5085158015611418575b83835260036020526040832060018154019055858352600260205260408320846bffffffffffffffffffffffff60a01b8254161790558584887fddf252ad1be2c89b69c2b068fc378daa952ba7f163c4a11628f55a4df523b3ef8680a415611386576008548583526009602052806040842055600160401b811015611372578561093f8260016112e394016008556114dc565b82860361131d575b5050506001600160a01b031680830361130357505050565b6364283d7b60e01b60005260045260245260445260646000fd5b6113269061150d565b60001981019290831161135e5790604091815260066020528181208382526020528482822055848152600760205220553880806112eb565b634e487b7160e01b82526011600452602482fd5b634e487b7160e01b83526041600452602483fd5b8583146112e3576113968661150d565b858352600760205260408320548181036113d7575b5085835260076020528260408120558683526006602052604083209083526020528160408120556112e3565b8784526006602052604084208285526020526040842054888552600660205260408520828652602052806040862055845260076020526040842055386113ab565b600086815260046020526040902080546001600160a01b03191690558683526003602052604083208054600019019055611250565b8061148d575b1561145e5738611246565b84828761147757602491637e27328960e01b8252600452fd5b60449163177e802f60e01b825233600452602452fd5b5033861480156114bb575b806114535750848252600460205260408220546001600160a01b03163314611453565b5085825260056020908152604080842033855290915282205460ff16611498565b6008548110156114f757600860005260206000200190600090565b634e487b7160e01b600052603260045260246000fd5b6001600160a01b0316801561152d57600052600360205260406000205490565b6322718ad960e21b600052600060045260246000fd5b6000818152600260205260409020546001600160a01b0316908115611566575090565b637e27328960e01b60005260045260246000fd5b600b546001600160a01b0316330361158e57565b63118cdaa760e01b6000523360045260246000fd5b8060009172184f03e93ff9f4daa797ed6e38ed64bf6a1f0160401b8210156116ef575b806d04ee2d6d415b85acef8100000000600a9210156116d4575b662386f26fc100008110156116c0575b6305f5e1008110156116af575b6127108110156116a0575b6064811015611692575b1015611687575b600a6021600184019361162b85611184565b946116396040519687611162565b808652611648601f1991611184565b013660208701378401015b60001901916f181899199a1a9b1b9c1cb0b131b232b360811b8282061a835304801561168257600a9091611653565b505090565b600190910190611619565b606460029104930192611612565b61271060049104930192611608565b6305f5e100600891049301926115fd565b662386f26fc10000601091049301926115f0565b6d04ee2d6d415b85acef8100000000602091049301926115e0565b506040915072184f03e93ff9f4daa797ed6e38ed64bf6a1f0160401b81046115c6565b9291813b611721575b50505050565b604051630a85bd0160e11b81523360048201526001600160a01b039485166024820152604481019190915260806064820152921691906020908290819061176c9060848301906110d7565b03816000865af180916000916117f7575b50906117d657503d156117cf573d61179481611184565b906117a26040519283611162565b81523d6000602083013e5b805190816117ca5782633250574960e11b60005260045260246000fd5b602001fd5b60606117ad565b6001600160e01b03191663757a42ff60e11b01610bda57503880808061171b565b6020813d602011611832575b8161181060209383611162565b81010312610c285751906001600160e01b031982168203610c2557503861177d565b3d915061180356fed7b6990105719101dabeb77144f2a3385c8033acd3af97e9423a695e81ad1eb5a2646970667358221220663c8afda402e554174a46f6c258d492439d0c56bbf18c79453332360f0f970164736f6c634300081c0033",
  "linkReferences": {},
  "deployedLinkReferences": {}
}